:0400000007EF00F016
:0A0008001B8200ED04F014EF08F075
:10060000002020202020202020202020202020200A
:10061000202020202020202020004175746F6D6153
:100620007469636F2020202020202020202020209B
:10063000004175746F6D617469636F202020202004
:100640002020202020004D616E75616C202020202C
:100650002020202020202020004D616E75616C201C
:1006600020202020202020202000537461747573E6
:100670003A204F4E202020202020005374617475B2
:0D068000733A204F46462020202020000025
:10068E00000EC26E0F0EC16EF19E030E936E000E23
:10069E00946E0F0E956E000E966E000E816E000E0D
:1006AE008A6E000E826E000E8B6E000E836E000E32
:1006BE008C6E000E846E000E8D6EF19CF292F2889E
:1006CE00F19AF090F086FEEC06F00C0ED2EC05F0EE
:1006DE00000E106E590E116E010E86EC07F0000E14
:1006EE00106E010E116E020E86EC07F01A90F28C4F
:1006FE00F28EF28E1AA086EF03F088EF03F081EFF0
:10070E0003F08B8A000E106E310E116E010E86EC08
:10071E0007F0000E106E6A0E116E020E86EC07F0D8
:10072E00000E176E000E166E020E156E040E146E6F
:10073E00BA0EE82EFED7142EFCD7152EFAD700D0FF
:10074E0004001AB0ADEF03F0AFEF03F0B1EF03F01A
:10075E00C1EF03F0164A172A17BEBFEF03F017506A
:10076E0009E1640E165CD8A0BFEF03F0C1EF03F0F1
:10077E009BEF03F01AB0C6EF03F0C8EF03F0CAEF19
:10078E0003F081EF03F08B9A000E106E7B0E116E4C
:10079E00020E86EC07F0000E196E000E186E020E99
:1007AE00156E040E146EBA0EE82EFED7142EFCD75C
:1007BE00152EFAD700D004001AB0E8EF03F0EAEFD6
:1007CE0003F0ECEF03F081EF03F0184A192A19BE7B
:1007DE00FAEF03F0195009E1640E185CD8A0FAEF95
:1007EE0003F0FCEF03F0D6EF03F081EF03F007EF19
:1007FE0000F00600F6CF09F0F7CF0AF0F8CF0BF0B5
:10080E00F5CF0CF0F0A00EEF04F010EF04F04EEF69
:10081E0004F0340E086EF20EE82EFED7082EFCD72A
:10082E0081B21CEF04F01EEF04F04DEF04F01AA09D
:10083E0023EF04F026EF04F01A8027EF04F01A904D
:10084E008B9A1AA02DEF04F02FEF04F03FEF04F077
:10085E00000E046E1A0E056E010ECDEC07F0000EA2
:10086E00046E010E056E020ECDEC07F04DEF04F096
:10087E00000E046E460E056E010ECDEC07F0000E56
:10088E00046E010E056E020ECDEC07F0F090F2A292
:10089E0053EF04F055EF04F094EF04F0340E086EAD
:1008AE00F20EE82EFED7082EFCD781B061EF04F0D1
:1008BE0063EF04F093EF04F01AB068EF04F06AEF00
:1008CE0004F093EF04F08BBA6FEF04F072EF04F0C4
:1008DE00010E73EF04F0000EFF0A086E083A084688
:1008EE008B500818DF0B08188B6E8BBA81EF04F053
:1008FE0083EF04F08CEF04F0000E046E7B0E056E99
:10090E00020ECDEC07F093EF04F0000E046E6A0EAB
:10091E00056E020ECDEC07F0F2920CC0F5FF0BC087
:10092E00F8FF0AC0F7FF09C0F6FF1B9211000F6E09
:10093E00849284840D6A0FAE01D00D2A010E0D161D
:10094E000D320D3283500D187F0B0D18836E0FC0B4
:10095E000DF0060E0E6ED8900D320E2EB2EF04F084
:10096E00010E0D160D3A0D460D4683500D18BF0B98
:10097E000D18836E0FC00DF0050E0E6ED8900D3251
:10098E000E2EC5EF04F0010E0D160D3A0D468350D6
:10099E000D18DF0B0D18836E0FC00DF00D3A0F0EF4
:1009AE000D16010E0D160D3A83500D18EF0B0D1886
:1009BE00836E030EE82EFED700008482030EE82E0F
:1009CE00FED7000084920FC00DF0D8900D32D89053
:1009DE000D32D8900D32010E0D160D320D328350A0
:1009EE000D187F0B0D18836E0FC00DF0D8900D32C1
:1009FE00D8900D32010E0D160D3A0D460D46835050
:100A0E000D18BF0B0D18836E0FC00DF0D8900D3260
:100A1E00010E0D160D3A0D4683500D18DF0B0D18F5
:100A2E00836E0FC00DF0010E0D160D3A83500D188A
:100A3E00EF0B0D18836E030EE82EFED70000848296
:100A4E00030EE82EFED700008492030EE82EFED78A
:100A5E0000000F0E0D6E480EE82EFED70D2EFCD7A1
:100A6E001200036E84928484016A03AE01D0012ABF
:100A7E00010E011601320132835001187F0B01184D
:100A8E00836E03C001F0060E026ED8900132022E64
:100A9E004CEF05F0010E0116013A01460146835056
:100AAE000118BF0B0118836E03C001F0050E026E14
:100ABE00D8900132022E5FEF05F0010E0116013AB9
:100ACE00014683500118DF0B0118836E03C001F03D
:100ADE00013A0F0E0116010E0116013A835001184C
:100AEE00EF0B0118836E030EE82EFED700008482F2
:100AFE00030EE82EFED70000849203C001F0D890BA
:100B0E000132D8900132D8900132010E0116013215
:100B1E000132835001187F0B0118836E03C001F060
:100B2E00D8900132D8900132010E0116013A0146D9
:100B3E00014683500118BF0B0118836E03C001F0EC
:100B4E00D8900132010E0116013A01468350011868
:100B5E00DF0B0118836E03C001F0010E0116013A7E
:100B6E0083500118EF0B0118836E030EE82EFED78B
:100B7E0000008482030EE82EFED700008492030E3E
:100B8E00E82EFED700000F0E016E480EE82EFED79F
:100B9E00012EFCD712000F6E849284940D6A0FAE54
:100BAE0001D00D2A010E0D160D320D3283500D1887
:100BBE007F0B0D18836E0FC00DF0060E0E6ED890C3
:100BCE000D320E2EE6EF05F0010E0D160D3A0D4606
:100BDE000D4683500D18BF0B0D18836E0FC00DF010
:100BEE00050E0E6ED8900D320E2EF9EF05F0010E99
:100BFE000D160D3A0D4683500D18DF0B0D18836E32
:100C0E000FC00DF00D3A0F0E0D16010E0D160D3A0A
:100C1E0083500D18EF0B0D18836E030EE82EFED7C2
:100C2E0000008482030EE82EFED7000084920FC0CF
:100C3E000DF0D8900D32D8900D32D8900D32010EA5
:100C4E000D160D320D3283500D187F0B0D18836E5D
:100C5E000FC00DF0D8900D32D8900D32010E0D163A
:100C6E000D3A0D460D4683500D18BF0B0D18836EB1
:100C7E000FC00DF0D8900D32010E0D160D3A0D4627
:100C8E0083500D18DF0B0D18836E0FC00DF0010E83
:100C9E000D160D3A83500D18EF0B0D18836E030EC3
:100CAE00E82EFED700008482030EE82EFED7000049
:100CBE0084920F0E0D6E480EE82EFED70D2EFCD729
:100CCE001200036E84928494016A03AE01D0012A4D
:100CDE00010E011601320132835001187F0B0118EB
:100CEE00836E03C001F0060E026ED8900132022E02
:100CFE007CEF06F0010E0116013A014601468350C3
:100D0E000118BF0B0118836E03C001F0050E026EB1
:100D1E00D8900132022E8FEF06F0010E0116013A25
:100D2E00014683500118DF0B0118836E03C001F0DA
:100D3E00013A0F0E0116010E0116013A83500118E9
:100D4E00EF0B0118836E030EE82EFED7000084828F
:100D5E00030EE82EFED70000849203C001F0D89057
:100D6E000132D8900132D8900132010E01160132B3
:100D7E000132835001187F0B0118836E03C001F0FE
:100D8E00D8900132D8900132010E0116013A014677
:100D9E00014683500118BF0B0118836E03C001F08A
:100DAE00D8900132010E0116013A01468350011806
:100DBE00DF0B0118836E03C001F0010E0116013A1C
:100DCE0083500118EF0B0118836E030EE82EFED729
:100DDE0000008482030EE82EFED7000084920F0ED0
:100DEE00016E480EE82EFED7012EFCD71200959EFE
:100DFE00959C959A959896949692839E839C839AA9
:100E0E008398849284940F0E106E480EE82EFED7AF
:100E1E00102EFCD70F0E106E480EE82EFED7102E99
:100E2E00FCD70F0E106E480EE82EFED7102EFCD7F4
:100E3E000F0E106E480EE82EFED7102EFCD70F0E9A
:100E4E00106E480EE82EFED7102EFCD70F0E106E29
:100E5E00480EE82EFED7102EFCD7010E116E839E83
:100E6E00839C838A838884928494839E839C838AC2
:100E7E00838884828494030EE82EFED70000839E1E
:100E8E00839C838A8388849284940F0E106E480EFE
:100E9E00E82EFED7102EFCD7112A030E11645AEF3E
:100EAE0007F05CEF07F036EF07F0839E839C838A92
:100EBE00839884928494839E839C838A839884826D
:100ECE008494030EE82EFED70000839E839C838AB3
:100EDE008398849284940F0E106E480EE82EFED7DF
:100EEE00102EFCD7280ED2EC05F0100ED2EC05F029
:100EFE00010ED2EC05F00F0ED2EC05F01200126EC0
:100F0E009DEF07F01050800F136EB0EF07F01050EA
:100F1E00C00F136EB0EF07F01050940F136EB0EFBA
:100F2E0007F01050D40F136EB0EF07F01250010AF5
:100F3E00D8B489EF07F0030AD8B48EEF07F0010A90
:100F4E00D8B493EF07F0070AD8B498EF07F0B0EFD4
:100F5E0007F01350D2EC05F0BEEF07F011C0F6FF0C
:100F6E00060EF76E0800F5509EEC04F0112A11C023
:100F7E00F6FF060EF76E0800F5500009D8A4CAEF6A
:100F8E0007F0CCEF07F0B5EF07F01200066EE4EFB6
:100F9E0007F00450800F076EF7EF07F00450C00FF4
:100FAE00076EF7EF07F00450940F076EF7EF07F098
:100FBE000450D40F076EF7EF07F00650010AD8B4AD
:100FCE00D0EF07F0030AD8B4D5EF07F0010AD8B472
:100FDE00DAEF07F0070AD8B4DFEF07F0F7EF07F004
:100FEE00075068EC06F005EF08F005C0F6FF060E98
:100FFE00F76E0800F55038EC05F0052A05C0F6FF2F
:10100E00060EF76E0800F5500009D8A411EF08F08F
:10101E0013EF08F0FCEF07F012001A6A1B901B92F8
:0A102E00000EF86E000147EF03F01A
:020000040020DA
:08000000FFFFFFFFFFFFFFFF00
:020000040030CA
:0E000000FF021F1FFF0185FF0FC00FE00F4022
:00000001FF
