:0400000007EF00F016
:0A000800048201ED03F06BEF03F03A
:1006000000000600F2A207EF03F009EF03F01AEF73
:1006100003F0F2928CB00FEF03F012EF03F0010E33
:1006200013EF03F0000EFF0A036E8C500318FE0B4D
:1006300003188C6EF2A41FEF03F021EF03F047EFD5
:1006400003F0F294000ED76E830ED66E014A022A92
:10065000FA0E01180210D8A430EF03F032EF03F0C5
:1006600047EF03F0000E026E000E016E8CB23BEFFE
:1006700003F03EEF03F0010E3FEF03F0000EFF0A20
:10068000036E03468C500318FD0B03188C6E049206
:100690001100010E936E010E946E000E956E000E09
:1006A000816E000E8A6E000E836E000E8C6E0F0E31
:1006B000C16EF19EF19CF292F288F294F28AC50E1C
:1006C000D56E000ED76E830ED66EF28E040066EFE6
:1006D00003F007EF00F0026A016A0490049200013F
:0406E00049EF03F0EB
:020000040020DA
:08000000FFFFFFFFFFFFFFFF00
:020000040030CA
:0E000000FF021F1FFF0185FF0FC00FE00F4022
:00000001FF
